:100000000C94DB000C94FA000C94FA000C94FA00A7
:100010000C94FA000C94FA000C94FA000C94FA0078
:100020000C94FA000C94FA000C94FA000C94FA0068
:100030000C9440050C94FA000C94FA000C94FA000D
:100040000C942F060C94FA000C94FA000C94FA000D
:100050000C94FA000C94FA000C94FA000C94FA0038
:100060000C94FA000C94FA000C94FA000C94FA0028
:100070000C94FA000C94FA000C94FA000C94FA0018
:100080000C94FA000C94FA000C94FA003801420126
:100090004C01560161016C01770124012E01CD0252
:1000A000C502C002EA02DD02E502D5029E02960206
:1000B00091028902F202A6027C0264021203BB02D0
:1000C000B302AB0232036C02220374023F030A0341
:1000D0002A0384020203FA021A035F022D02250298
:1000E00035023703180210023A02F30157022002C8
:1000F0000302FB0147020B023F02EB01D1014F0259
:10010000C101B901DE01D601E301B401C9019C01BD
:10011000AC0197018F0187018201A40149046704A2
:100120004304550437043D0437043D046D04490479
:100130006704430455044F0431044F043104970409
:10014000D3048B0403058B04C704C10431049D044C
:100150003104AF045B04F1043704E5047304EB04D9
:100160007904F704BB0461045B04A3047F0449041D
:1001700067044304550437043D0437043D046D040B
:100180004904CD04610443044F0431044F04310495
:100190009704D904A9046D04DF049D047304790451
:1001A0005B046104FD047F04410A3B0A350A150A19
:1001B0000F0A090A4C0A11241FBECFEFD0E1DEBF9F
:1001C000CDBF11E0A0E0B1E0EEE3F9E100E00BBF4C
:1001D00002C007900D92A032B107D9F721E0A0E24A
:1001E000B1E001C01D92A639B207E1F70E94800973
:1001F0000C949D0C0C940000929A10926501109240
:10020000640190E090936301809362010895582FF8
:100210009298109265011092640130E0309363016E
:1002200020936201842F90E08930910518F01BBC67
:100230001ABC08958A5B9F4FFC01852F550F990BBF
:10024000AA0BBB0B0C94080CFC01E154F109E7303C
:10025000F10578F7E15BFF4F0C94080CFC01E154C9
:10026000F109E730F10528F7EA5AFF4F0C94080C22
:10027000FC01E154F109E730F105D8F6E35AFF4FEC
:100280000C94080CFC01E154F109E730F10588F603
:10029000EC59FF4F0C94080CFC01E154F109E730D4
:1002A000F10538F6E559FF4F0C94080CFC01E154B8
:1002B000F109E730F10508F0BCCFEE58FF4F0C9480
:1002C000080CFC01E154F109E730F10508F0B1CF69
:1002D000E758FF4F0C94080CFC01E154F109E7309A
:1002E000F10508F0A6CFE058FF4F0C94080CFC0174
:1002F000E154F109E730F10508F09BCFE957FF4FD2
:100300000C94080C88E590E09BBD8ABD0895662397
:1003100009F40FC283E690E09BBD8ABD0895662371
:1003200009F411C28FE690E09BBD8ABD089586E76F
:1003300090E09BBD8ABD0895662309F4FFC18AE45D
:1003400090E09BBD8ABD0895662309F401C283E550
:1003500090E09BBD8ABD0895662309F4B8C182E48C
:1003600090E09BBD8ABD089581EB90E09BBD8ABD66
:100370000895662309F4D3C185E890E09BBD8ABD4A
:100380000895662309F4C1C185E990E09BBD8ABD4B
:100390000895662309F4BEC187EA90E09BBD8ABD3B
:1003A000089584E691E09BBD8ABD0895662309F413
:1003B000BBC180EE90E09BBD8ABD08958DEE90E0BC
:1003C0009BBD8ABD0895662309F48BC187EC90E03C
:1003D0009BBD8ABD0895662309F474C180E991E04C
:1003E0009BBD8ABD0895662309F4CBC184E893E0E0
:1003F0009BBD8ABD0895662309F4AFC18BE291E0ED
:100400009BBD8ABD0895662309F4B1C182EA92E0DA
:100410009BBD8ABD08958CED91E09BBD8ABD08957A
:10042000662309F459C187E192E09BBD8ABD089516
:10043000662309F4B0C188E592E09BBD8ABD0895AA
:100440008AEC92E09BBD8ABD0895662309F435C10C
:1004500086E496E09BBD8ABD0895662309F482C1B7
:100460008AE097E09BBD8ABD089586E995E09BBD33
:100470008ABD08958AEB93E09BBD8ABD08956623EB
:1004800009F47AC181EC91E09BBD8ABD0895662391
:1004900009F47CC18BE091E09BBD8ABD0895662381
:1004A00009F47EC180E591E09BBD8ABD0895662375
:1004B00009F4ADC182E293E09BBD8ABD089586E751
:1004C00097E09BBD8ABD0895662309F40FC18EECA9
:1004D00092E19BBD8ABD0895662309F47AC18DE13E
:1004E00095E19BBD8ABD0895662309F4DCC080E6D2
:1004F00098E09BBD8ABD0895662309F492C180E10E
:1005000090E09BBD8ABD08958EE29BE09BBD8ABDB5
:100510000895662309F449C18BE190E09BBD8ABD33
:1005200008958CE190E09BBD8ABD0895662309F48F
:1005300041C187E090E09BBD8ABD0895662309F420
:10054000DAC08BE090E09BBD8ABD089582E190E027
:100550009BBD8ABD0895662309F49BC089E199E19A
:100560009BBD8ABD0895662309F429C180E39CE1FF
:100570009BBD8ABD08958CED9DE19BBD8ABD08950C
:100580008AE390E09BBD8ABD0895662309F435C1D6
:1005900080E290E09BBD8ABD0895662309F432C1D4
:1005A00084E290E09BBD8ABD0895662309F476C07D
:1005B00089E290E09BBD8ABD0895662309F478C066
:1005C00081E390E09BBD8ABD08958BE290E09BBDE6
:1005D0008ABD0895662309F493C087E390E09BBD2C
:1005E0008ABD0895662309F44FC088E190E09BBD61
:1005F0008ABD0895662309F4F6C082EB94E09BBDA2
:100600008ABD0895662309F416C18DE89AE09BBD62
:100610008ABD0895662309F4D7C086E19EE09BBD9C
:100620008ABD0895662309F4F7C080EC90E19BBD74
:100630008ABD0895662309F4D1C08FE294E09BBD82
:100640008ABD0895662309F4F1C087E699E09BBD51
:100650008ABD0895662309F4CBC08DE89CE09BBD5C
:100660008ABD08958DE596E19BBD8ABD08956623F8
:1006700009F4E6C086E495E09BBD8ABD08958DEE41
:100680009EE09BBD8ABD089585E190E09BBD8ABD3B
:10069000089582EB97E19BBD8ABD089586E290E0C4
:1006A0009BBD8ABD089587EE97E09BBD8ABD0895E6
:1006B0008EE290E09BBD8ABD08958BEE95E09BBDD8
:1006C0008ABD08958AE791E09BBD8ABD08958EE3B7
:1006D00090E09BBD8ABD089589EF91E09BBD8ABDE6
:1006E00008958CEB90E09BBD8ABD089580EC91E16C
:1006F0009BBD8ABD089589E090E09BBD8ABD0895A9
:1007000084E390E09BBD8ABD08958DE890E09BBD99
:100710008ABD08958EE990E09BBD8ABD08958DE75E
:1007200090E09BBD8ABD089583ED90E09BBD8ABD9E
:1007300008958DE590E09BBD8ABD089586E490E024
:100740009BBD8ABD089589E690E09BBD8ABD089552
:100750008EE490E09BBD8ABD08958BE191E09BBD46
:100760008ABD089585EA96E09BBD8ABD08958CE711
:1007700092E09BBD8ABD089588EA91E09BBD8ABD49
:10078000089582E593E09BBD8ABD08958CEF90E0CB
:100790009BBD8ABD089587E392E09BBD8ABD089505
:1007A0008DE391E09BBD8ABD089589E190E09BBDFA
:1007B0008ABD089585E090E09BBD8ABD08958AE9D1
:1007C0009AE19BBD8ABD08958CE49DE09BBD8ABDE6
:1007D00008958DEE93E19BBD8ABD089583EF93E06C
:1007E0009BBD8ABD08958FE694E09BBD8ABD0895A8
:1007F00088ED9BE09BBD8ABD08958EE190E09BBD96
:100800008ABD089582E290E09BBD8ABD089585EF80
:1008100092E09BBD8ABD089580ED9FE09BBD8ABD9F
:1008200008958DE090E09BBD8ABD08958FED98E01E
:100830009BBD8ABD089586EF99E09BBD8ABD089552
:100840008AEF94E09BBD8ABD08958634910520F01F
:100850008FEF809340010895FC01E257FF4F0C9405
:10086000080C22E044E060E081E40C94070126E0FB
:1008700044E060E081E40C94070122E044E061E0A0
:1008800081E40C94070128E044E060E084E40C94E7
:10089000070128E044E060E086E40C94070126E0CC
:1008A00044E061E082E40C94070128E044E060E069
:1008B00083E40C94070128E044E060E081E40C94B8
:1008C000070128E044E060E087E40C94070128E099
:1008D00044E060E085E40C94070120E144E060E03E
:1008E00081E40C94070124E045E060E083E40C948B
:1008F000070124E045E060E084E40C940701929A4B
:10090000109265011092640188E090E09093630179
:10091000809362010895929A109265011092640189
:1009200081E090E09093630180936201089520E15B
:1009300044E061E082E40C94070128E044E061E0D7
:1009400082E40C94070128E144E060E087E40C9421
:10095000070120E145E060E084E40C940701929AED
:10096000109265011092640182E090E0909363011F
:1009700080936201089524E044E060E081E40C94F7
:10098000070126E044E060E087E40C94070124E0DE
:1009900044E061E087E40C94070128E044E061E072
:1009A00087E40C94070123E044E060E087E40C94C2
:1009B000070120E144E060E084E40C94070120E1B9
:1009C00045E060E083E40C94070122E044E061E04C
:1009D00082E40C94070124E045E061E084E40C9497
:1009E000070124E044E061E081E40C94070128E081
:1009F00044E060E082E40C94070128E144E060E018
:100A000086E40C94070127E044E060E087E40C945E
:100A10000701862F90E00C942504109240018EB5BA
:100A20008C7F8EBD929A0895109240018EB583609E
:100A30008EBD929860914001809141010C9409050E
:100A400087B7806187BF1FBC8EB588608EBD10924E
:100A50007A0081E390E09BBD8ABD109240018EB583
:100A60008C7F8EBD929A1092650110926401109253
:100A700063011092620110924001109241010895A9
:100A80001F920F920FB60F9211240BB60F922F9355
:100A90003F934F935F936F937F938F939F93AF9306
:100AA000BF93EF93FF9382B3805882BB2091640180
:100AB0003091650180916201909163012817390797
:100AC00058F0809140018F5F809340016091400118
:100AD000809141010E940905FF91EF91BF91AF9173
:100AE0009F918F917F916F915F914F913F912F9146
:100AF0000F900BBE0F900FBE0F901F901895CF93C5
:100B0000DF93AC01C0E0D0E0892B39F1E0E0F0E008
:100B10009A01ADECBCEC0E94110C969587959695C8
:100B2000879596958795BC01660F771F9C01220FCC
:100B3000331F220F331F220F331F260F371F421B75
:100B4000530B0E2E02C0440F551F0A94E2F7C40F38
:100B5000D51F3496AC01892BD9F6CE01DF91CF9108
:100B60000895482FE82FF0E099B3EE0FFF1FE15DE5
:100B7000FE4F20813181220F331F3E6F892F90E07D
:100B800002C0959587954A95E2F781709927282BA1
:100B9000392B3183208381E021153F4F09F080E01C
:100BA00008959C0190E010C0E92FF0E0EC5EFE4F4C
:100BB000822F8F708083329522952F7023273F706C
:100BC00023279F5F953070F4923071F7822F8F70DA
:100BD00080931701329522952F7023273F7023278A
:100BE00094E0E2CF089587B3876087BBC19A80E520
:100BF0008DB981E08EB9E1E6F0E080818860808384
:100C0000E2E6F0E08081877F8083089587B7816086
:100C100087BF80B7886080BF83B7816083BF089536
:100C200085B58A6785BD81E083BD0895EBE8F0E076
:100C3000808183688083EAE8F0E080818961808335
:100C400010928C008FEF9FEF909387008093860027
:100C500008958FB9779BFECF8FB1809508951F922D
:100C60000F920FB60F9211248F939F9380912C01B6
:100C70008F5F80932C018F7779F480912B018F5FA8
:100C800080932B01909116018DEF89278093160197
:100C900080912201811117C0809124018F5F809380
:100CA0002401877049F48091640190916501019657
:100CB00090936501809364019F918F910F900FBE77
:100CC0000F901F901895809123018F5F80932301CF
:100CD000E3CFE2E4F1E080E2819391E0E236F907CC
:100CE000D9F7089591E0811101C090E09FB9779BF9
:100CF000FECF6FB9779BFECF8091620088608093B2
:100D0000620080916200877F809362000895CF9394
:100D1000C0913F018C0F911DFC01608181E00E9418
:100D2000720681E08C0F80933F01803181F0803228
:100D300011F0CF91089585ED8A95F1F7000060E8F4
:100D400080E00E94720610923F01CF910895F5ED68
:100D5000FA95F1F7000060EC80E00E947206809145
:100D60003F01E5CFEF92FF920F931F93CF93DF9355
:100D70001F92CDB7DEB7182F660F660F660F605C47
:100D800080E099830E94720685ED8A95F1F7000054
:100D9000E12E9981F92E8701085F1F4FF7016191BC
:100DA0007F0181E00E947206F5EDFA95F1F70000EF
:100DB000E016F10699F70F90DF91CF911F910F91F7
:100DC000FF90EF90089590E4899F600D1124605C7E
:100DD00080E00C947206CF938823B9F1C82F843633
:100DE00098F48A30D8F48DECC89F812D1124869513
:100DF000869586956C2F2AE0829F60191124605D8C
:100E000081E0CF910C94720669E2869F612D1124D6
:100E100062956F70605D81E00E94720689E2C89FF2
:100E2000812D112482958F709C2F24E6829F90192A
:100E300011246DEC969F612D11246695669566953B
:100E4000605D81E00E947206CECF60E381E0CF91C9
:100E50000C947206CF9387FD03C0CF910C94EB06E0
:100E6000C82F6DE281E00E94720685ED8A95F1F748
:100E700000008C2F8195CF910C94EB066EE080E002
:100E80000C9472066CE080E00C9472066EE180E0D7
:100E90000C94720668E180E00C947206E2E6F0E0E1
:100EA0008081886080838081877F8083089561E06E
:100EB00080E00E9472068FE19CE10197F1F700C08B
:100EC0000000089562E080E00E9472068FE697E1DC
:100ED0000197F1F700C00000089560EC80E00C94E9
:100EE000720660E880E00C947206CF93C0E160E285
:100EF00081E00E94720685ED8A95F1F70000C150ED
:100F0000B1F7CF910895682F81E00C9472060F938A
:100F10001F93CF938C0140E050E0C0E0F801E40F54
:100F2000F51F608181E00E94720685ED8A95F1F7D8
:100F30000000CF5F4C2F50E0F80101900020E9F74E
:100F40009F01201B310B225031092417350730F740
:100F5000CF911F910F9108958FEF99EF0197F1F7BE
:100F600000C0000088E08093610060E380E00E94A0
:100F700072068FE59DE60197F1F700C0000060E37F
:100F800080E00E9472068FE59DE60197F1F700C0B0
:100F9000000060E380E00E9472068FE59DE6019705
:100FA000F1F700C0000068E380E00E9472068FE164
:100FB0009EE40197F1F700C0000068E080E00E9425
:100FC00072068FE19EE40197F1F700C0000061E036
:100FD00080E00E9472068FE19EE40197F1F700C065
:100FE000000066E080E00E9472068FE19EE40197B7
:100FF000F1F700C000006CE080E00E9472068FE113
:101000009EE40197F1F700C0000008958F929F922F
:10101000AF92BF92CF92DF92EF92FF920F931F9306
:10102000CF93DF93CDB7DEB769970FB6F894DEBFE5
:101030000FBECDBFF42E122F002359F04B015C01DF
:101040008824B7FC83949924AA24BB24082D97FDF7
:101050008FC0112309F484C09E012F5F3F4F6901A7
:10106000590188248A94810E912C3FEF831A930AA8
:101070008C0C9D1C2AE030E040E050E00E94E90B1F
:10108000E62F2A8B3B8B4C8B5D8B6A897B898C8905
:101090009D8920E32E0FF50121935F01E815F905E5
:1010A00049F7BB24B394B10EF601E10FF11D2EE216
:1010B00020832AE030E040E050E00E94E90BE62F78
:1010C0002A8B3B8B4C8B5D8B6E8B7F8B888F998FA4
:1010D0006A897B898C899D8911E01B0DD601AB0D36
:1010E000B11DE05DEC93B12E61157105810591058F
:1010F00001F7FF2061F0E11039C080E21F1538F4DC
:10110000F601E10FF11D80831F5F1F11F9CF00234E
:1011100031F0F601E10FF11D8DE280831F5F115068
:10112000F601E10FF11D608181E00E94720635ED4C
:101130003A95F1F700001111F2CF69960FB6F894C5
:10114000DEBF0FBECDBFDF91CF911F910F91FF90FA
:10115000EF90DF90CF90BF90AF909F908F900895C9
:10116000B12C9E012F5F3F4F6901A3CF80E3C6CF13
:1011700090958095709561957F4F8F4F9F4F69CF68
:101180005F926F927F928F929F92AF92BF92CF9217
:10119000DF92EF92FF920F931F93CF93DF93CDB720
:1011A000DEB761970FB6F894DEBF0FBECDBFA62E97
:1011B000542E622E792E771C7724771CB72CC72CDF
:1011C000D12CEE27FF27EC19FD098E279F27FC0164
:1011D000EC0DFD1D442309F48EC0CE0101967C0167
:1011E0008C0188248A94840E912C9FEF891A990A85
:1011F0008E0C9F1C6AE070E0CF010E94D50B262F59
:10120000E22FF72F805DD8018D938D01A815B905C8
:1012100089F701E0050DD701A50DB11D8EE28C9374
:101220006AE070E0CF010E94D50B262FE22FF72F46
:1012300011E0100FD701A00FB11D805D8C93012F1D
:10124000309771F7611015C0772039F011E0100F59
:10125000F701E00FF11D8DE28083AA2041F1812F7B
:1012600090E02A2D30E0821793070CF5B12C40E274
:101270000CC0AA20A1F0812F90E02A2D30E02C197B
:101280003D09821793075CF440E31F5FF701E80F05
:10129000F91F4083812F90E082179307B4F3BB209E
:1012A00031F0F701E10FF11D8DE280831F5F1150D6
:1012B000F701E10FF11D608181E00E94720695ED5A
:1012C0009A95F1F700001111F2CF61960FB6F894DC
:1012D000DEBF0FBECDBFDF91CF911F910F91FF9069
:1012E000EF90DF90CF90BF90AF909F908F907F90C6
:1012F0006F905F90089500E0CE0101967C0190CF41
:1013000087B3806F87BBC79881B3846881BB82B382
:101310008B7782BB139A1B9887B7816087BF80B792
:10132000886080BF83B7816083BF85B58A6785BDCC
:1013300081E083BD80918B00836880938B008091D6
:101340008A00896180938A0010928C008FEF9FEF52
:1013500090938700809386000E94F3050E94AC075B
:101360000E94570778940E942005809162008F7731
:101370008093620087E487B987E886B900E010E0CF
:1013800022E4A22E21E0B22ED1E0EE24EA94FE2C3B
:1013900055245394C0E24AE3C42ED12C50E3652E69
:1013A000712C369A349BFECF349A84B195B183BDAB
:1013B0001ABA8FEF8BBB88B3806788BBAFE2B1E00E
:1013C00041E050E006C04830510509F477C04F5F56
:1013D0005F4FFA01319789B32D913C911197220FFC
:1013E000331F3E6F90E00E2E02C0959587950A94AC
:1013F000E2F781709927822B932B8D939D93811512
:101400009F4F09F7E730F105F0F6EC52FF4F0C94CF
:10141000080C809126018F5F80932601D8CF8091A0
:1014200025018F5F80932501D2CF809127018D27E1
:101430008093270121E030E0882311F020E030E0A4
:101440008091200190E082239323892B09F4BFCF60
:10145000109240018EB58C7F8EBD929AF0928700DB
:10146000E092860010922001B2CF809128018F5F18
:1014700080932801ACCF809129018F5F809329014F
:10148000A6CF1092290110922801109225011092E6
:101490002601109227019BCF809122018D278093F6
:1014A000220110922301109240018EB58C7F8EBDD7
:1014B000929AF0928700E092860089CF88B3806686
:1014C00088BBC49880912B01409129018C3328F06E
:1014D0004F5F4093290110922B01809128014C33DA
:1014E00008F01EC150E0893108F015C124E6829F42
:1014F000C0011124480F591F50932E0140932D0114
:10150000E0E0F0E04115510549F1812C912C9A0160
:10151000ADECBCEC0E94110C96958795969587953D
:1015200096958795BC01660F771F9C01220F331F8C
:10153000220F331F220F331F260F371F421B530B5F
:10154000082C02C0440F551F0A94E2F7E40FF51F60
:1015500024E0820E911CAC01892BC9F680E010C0FA
:10156000A82FB0E0AC5EBE4F9E2F9F709C93F2956B
:10157000E295EF70EF27FF70EF278F5F853070F4F3
:10158000823071F78E2F8F7080931701F295E2955C
:10159000EF70EF27FF70EF2784E0E2CF8FEF8ABB79
:1015A000F801EC5EFE4FE081F0E0E65FFE4F8081E7
:1015B0008BBB98B3F801EB5FFE4F8081892B88BB12
:1015C00098B3F801E050FF4F8081892388BB480120
:1015D0008FEF881A980A94E08916910409F491C053
:1015E00085E08816910414F0812C912C80912501BE
:1015F0008C3308F09DC090E020912601293110F035
:1016000010922601E2E4F1E0C19321E0E236F20714
:10161000D9F74AE066E771E00E94680C80912601E4
:101620004AE066E671E090E00E94680C66E671E0D0
:1016300082E491E00E94610CF50101900020E9F73D
:1016400031979F0122543140D182C082809125017F
:101650008A3008F4A4C066E771E082E491E00E9459
:10166000560C8091270181118DC0F5010190002059
:10167000E9F73197C08382E491E00E948706809168
:1016800023018B3008F059C091E080912101811134
:1016900090E081E020912201211180E0892390E0F7
:1016A00040912001242F30E082239323892B09F0DD
:1016B00055C091E02091250180912901281390E0E7
:1016C00081E03091260120912801321380E08923A6
:1016D00090E02091270130E08223932321E030E045
:1016E000442311F020E030E082239323892B09F07A
:1016F00040C08FE99FE00197F1F700C0000084012E
:1017000050CE809128018A3008F06ACF480122E04B
:10171000820E911C65CF1092280180E090E0EACE05
:101720008F5F809328011092290140E050E0DBCECA
:101730001092250180E090E05FCF1092230110927B
:1017400022011092210181E090E040912001242F9C
:1017500030E082239323892B09F4ABCFF0928700EA
:10176000E09286000E9414055092210140912001D0
:10177000A0CFF0928700E0928600509220010E9454
:101780001405B7CFD5010D900020E9F7119787E038
:10179000E9E1F1E001900D928A95E1F766CFF90158
:1017A000ED5BFE4F7182608256CF97FB072E16F4D9
:1017B000009407D077FD09D00E94200C07FC05D0CB
:1017C0003EF4909581959F4F0895709561957F4F58
:1017D0000895052E97FB1EF400940E94000C57FDFF
:1017E00007D00E94340C07FC03D04EF40C94000C7C
:1017F00050954095309521953F4F4F4F5F4F08953D
:1018000090958095709561957F4F8F4F9F4F08956C
:10181000EE0FFF1F0024001C0BBE0790F691E02D79
:101820000994A29FB001B39FC001A39F700D811DB9
:101830001124911DB29F700D811D1124911D0895D9
:10184000AA1BBB1B51E107C0AA1FBB1FA617B707E6
:1018500010F0A61BB70B881F991F5A95A9F7809502
:101860009095BC01CD010895A1E21A2EAA1BBB1BC5
:10187000FD010DC0AA1FBB1FEE1FFF1FA217B3075C
:10188000E407F50720F0A21BB30BE40BF50B661F72
:10189000771F881F991F1A9469F760957095809536
:1018A00090959B01AC01BD01CF010895FB01DC01C6
:1018B0000D900020E9F7119701900D920020E1F7BB
:1018C0000895FB01DC0101900D920020E1F70895DD
:1018D000BB274A3031F4992322F4BDE290958195DB
:1018E0009F4F0C94740CBB27FB015527AA27880F28
:1018F000991FAA1FA41710F0A41B83955051B9F784
:10190000A05DAA3308F0A95DA193009779F7B11102
:10191000B1931192CB010C948D0CDC01FC01672F6B
:1019200071917723E1F7329704C07C916D937083B6
:0E1930006291AE17BF07C8F30895F894FFCF79
:10193E008F9FAFBFCF0010203040C0F9A4B0999256
:10194E0082F88098C0FFFFFFFF20414C41524D00AE
:00000001FF
