S01100006C6162325F736B656C2E73726563A4
S11300000C9446000C9465000C9465000C946500F7
S11300100C9465000C9465000C9465000C946500C8
S11300200C9465000C9465000C9465000C946500B8
S11300300C9465000C9465000C9465000C946500A8
S11300400C9465000C9465000C9465000C94650098
S11300500C9465000C9465000C9465000C94650088
S11300600C9465000C9465000C9465000C94650078
S11300700C9465000C9465000C9465000C94650068
S11300800C9465000C9465000C94650011241FBE4B
S1130090CFEFD0E1DEBFCDBF11E0A0E0B1E0EEE5EF
S11300A0F3E000E00BBF02C007900D92A431B1074A
S11300B0D9F721E0A4E1B1E001C01D92A532B20755
S11300C0E1F70E94E9000C94AD010C940000CF9379
S11300D0DF93AC01892B89F1E0E0F0E0C0E0D0E0EF
S11300E09A01ADECBCEC0E949E019695879596957D
S11300F0879596958795BC01660F771F9C01220F03
S1130100331F220F331F220F331F260F371F421BAB
S1130110530B9F01220F331F220F331F02C0440FC2
S1130120551F2A95E2F7C42BD52BAC013196892BA8
S1130130B9F6CE01DF91CF910895C0E0D0E0F9CFB8
S113014089B380E090EF909318018093170181E0C8
S113015008953091150199B3E32FF0E0E75EFE4F67
S1130160892380833F5F90911601E9E1F1E08FEFED
S11301702191822398273C3008F030E021E0E432DA
S1130180F207B1F7909316013093150108959C017D
S113019090E010C0E92FF0E0E15FFE4F822F8F70F6
S11301A08083329522952F7023273F7023279F5FEA
S11301B0953070F4923071F7822F8F708093120112
S11301C0329522952F7023273F70232794E0E2CFA6
S11301D0089580EF87BB18BA8FE99FE00197F1F784
S11301E000C000008FE99FE00197F1F700C0000014
S11301F01ABA8FEF8BBB90E798BB93E090931401EE
S113020090E698BB8ABBC0E0D0E0FF24FA9410E7E4
S1130210C12E03E0D02E80E6E82E40E050E000E05E
S113022010E0E1EEF0E19F01ADECBCEC0E949E0118
S1130230969587959695879596958795BC01660FB3
S1130240771F9C01220F331F220F331F220F331FEE
S1130250260F371FE21BF30B9801220F331F220FC7
S1130260331F02C0EE0FFF1F2A95E2F74E2B5F2BC0
S1130270FC010F5F1F4F04301105A9F680E010C088
S1130280E82FF0E0E15FFE4F942F9F70908352952A
S113029042954F7045275F7045278F5F853070F416
S11302A0823071F7842F8F7080931201529542959A
S11302B04F7045275F70452784E0E2CFE09113013A
S11302C0F0E0EB5FFE4F80818BBBFE01E050FF4FFF
S11302D0808188BB2196C530D105B4F08FE99FE0B9
S11302E00197F1F700C000008FE99FE00197F1F753
S11302F000C000001ABAFBBAC8BAD0921401E8BA16
S1130300FABAC0E0D0E089CF8FE99FE00197F1F716
S113031000C000008FE99FE00197F1F700C00000E2
S11303201ABAFBBAC8BAD0921401E8BAFABAC230FF
S1130330D10509F072CFC3E0D0E06FCFA29FB00126
S1130340B39FC001A39F700D811D1124911DB29F05
S1110350700D811D1124911D0895F894FFCFA6
S113035E0010203040C0F9A4B0999282F88098C061
S107036EFF07FFFF83
S9030000FC
