:100000000C9446000C9465000C9465000C946500FB
:100010000C9465000C9465000C9465000C946500CC
:100020000C9465000C9465000C9465000C946500BC
:100030000C9465000C9465000C9465000C946500AC
:100040000C9465000C9465000C9465000C9465009C
:100050000C9465000C9465000C9465000C9465008C
:100060000C9465000C9465000C9465000C9465007C
:100070000C9465000C9465000C9465000C9465006C
:100080000C9465000C9465000C94650011241FBE4F
:10009000CFEFD0E1DEBFCDBF11E0A0E0B1E0EAEBF1
:1000A000F3E000E00BBF02C007900D92A431B1074E
:1000B000D9F721E0A4E1B1E001C01D92AE31B20751
:1000C000E1F70E94DC000C94DB010C940000CF935C
:1000D000DF93AC01C0E0D0E0892B39F1E0E0F0E043
:1000E0009A01ADECBCEC0E94CC0196958795969553
:1000F000879596958795BC01660F771F9C01220F07
:10010000331F220F331F220F331F260F371F421BAF
:10011000530B0E2E02C0440F551F0A94E2F7C40F72
:10012000D51F3496AC01892BD9F6CE01DF91CF9142
:10013000089549B3E82FF0E0E95EFE4F21E030E09A
:10014000B90102C0660F771F8A95E2F7CB01942FA1
:1001500090958923808390911601E7E1F1E08FEF7C
:1001600021918223982771E0ED31F707C9F7909329
:10017000160108959C0190E010C0E92FF0E0E15FC6
:10018000FE4F822F8F708083329522952F70232708
:100190003F7023279F5F953070F4923071F7822F64
:1001A0008F7080931201329522952F7023273F7014
:1001B000232794E0E2CF089580EF87BB18BA00E0D0
:1001C00010E0FF24FA94B0E7DB2EC1E0D0E080E637
:1001D000E82E8FE99FE00197F1F700C000008FE95A
:1001E0009FE00197F1F700C000008FE99FE00197C1
:1001F000F1F700C000001ABAFBBAD8BA3091160164
:10020000A7E1B1E040E050E089B3282F2095CE016E
:10021000042E01C0880F0A94EAF782238D93E7E148
:10022000F1E0932F8FEF21918223982721E0ED3188
:10023000F207C9F7392F909316014F5F5F4F48308F
:10024000510511F790FF05C0809114018F5F8093D5
:10025000140191FF05C0809114018E5F80931401F9
:1002600092FF05C0809114018C5F8093140193FF6D
:1002700005C080911401885F8093140194FF05C02C
:1002800080911401805F8093140195FF05C08091D7
:100290001401805E8093140196FF05C080911401C3
:1002A000805C8093140197FD71C0E8BAFABA0230FD
:1002B000110509F468C04091140150E0E0E0F0E05D
:1002C0004115510549F1A12CB12C9A01ADECBCECC2
:1002D0000E94CC01969587959695879596958795DA
:1002E000BC01660F771F9C01220F331F220F331FA3
:1002F000220F331F260F371F421B530B0A2C02C03D
:10030000440F551F0A94E2F7E40FF51F24E0A20EF4
:10031000B11CAC01892BC9F680E010C0A82FB0E059
:10032000A15FBE4F9E2F9F709C93F295E295EF7058
:10033000EF27FF70EF278F5F853070F4823071F701
:100340008E2F8F7080931201F295E295EF70EF2758
:10035000FF70EF2784E0E2CFF801E15FFE4FE0811C
:10036000F0E0EB5FFE4F80818BBBF801E050FF4F68
:10037000808188BB0F5F1F4F053011050CF429CF1A
:1003800000E010E026CF03E010E095CF809114014B
:1003900080588093140189CFA29FB001B39FC00100
:1003A000A39F700D811D1124911DB29F700D811DA1
:0A03B0001124911D0895F894FFCF69
:1003BA000010203040C0F9A4B0999282F88098C009
:0403CA00FF07FFFF2B
:00000001FF
