S01100006C6162325F736B656C2E73726563A4
S11300000C9446000C945D000C945D000C945D000F
S11300100C945D000C945D000C945D000C945D00E8
S11300200C945D000C945D000C945D000C945D00D8
S11300300C945D000C945D000C945D000C945D00C8
S11300400C945D000C945D000C945D000C945D00B8
S11300500C945D000C945D000C945D000C945D00A8
S11300600C945D000C945D000C945D000C945D0098
S11300700C945D000C945D000C945D000C945D0088
S11300800C945D000C945D000C945D0011241FBE63
S1130090CFEFD0E1DEBFCDBF11E0A0E0B1E0ECEDE9
S11300A0F0E000E00BBF02C007900D92A031B10751
S11300B0D9F70E9461000C946C000C940000089520
S11300C0089580EF87BB18BA2FEF90E780E61ABA3D
S10F00D02BBB98BB88BBFBCFF894FFCF80
S11300DC039F250D9949411F0119FFFFFFFFFF00E5
S9030000FC
