:100000000C9446000C9465000C9465000C946500FB
:100010000C9465000C9465000C9465000C946500CC
:100020000C9465000C9465000C9465000C946500BC
:100030000C9465000C9465000C9465000C946500AC
:100040000C9465000C9465000C9465000C9465009C
:100050000C9465000C9465000C9465000C9465008C
:100060000C9465000C9465000C9465000C9465007C
:100070000C9465000C9465000C9465000C9465006C
:100080000C9465000C9465000C94650011241FBE4F
:10009000CFEFD0E1DEBFCDBF11E0A0E0B1E0E8E4FA
:1000A000F3E000E00BBF02C007900D92A431B1074E
:1000B000D9F721E0A4E1B1E001C01D92A532B20759
:1000C000E1F70E94E2000C94A2010C940000CF938F
:1000D000DF93AC01C0E0D0E0892B39F1E0E0F0E043
:1000E0009A01ADECBCEC0E9493019695879596958C
:1000F000879596958795BC01660F771F9C01220F07
:10010000331F220F331F220F331F260F371F421BAF
:10011000530B0E2E02C0440F551F0A94E2F7C40F72
:10012000D51F3496AC01892BD9F6CE01DF91CF9142
:10013000089589B380E090EF9093180180931701A0
:1001400081E008953091150199B3E32FF0E0E75E67
:10015000FE4F892380833F5F90911601E9E1F1E032
:100160008FEF2191822398273C3008F030E021E086
:10017000E432F207B1F79093160130931501089518
:100180009C0190E010C0E92FF0E0E15FFE4F822F6C
:100190008F708083329522952F7023273F702327FD
:1001A0009F5F953070F4923071F7822F8F7080933B
:1001B0001201329522952F7023273F70232794E058
:1001C000E2CF089580EF87BB18BA8FE99FE00197CF
:1001D000F1F700C000008FE99FE00197F1F700C040
:1001E00000001ABA8FEF8BBB90E798BB93E0909317
:1001F000140190E698BB8ABBC0E0D0E0FF24FA94DB
:10020000B0E7CB2E13E0D12E00E6E02E40E050E028
:1002100000E010E0E1EEF0E19F01ADECBCEC0E94EB
:100220009301969587959695879596958795BC01A8
:10023000660F771F9C01220F331F220F331F220FDF
:10024000331F260F371FE21BF30B002E02C0EE0FE9
:10025000FF1F0A94E2F74E0F5F1F0C5F1F4FFC0158
:1002600000311105C9F680E010C0E82FF0E0E15F31
:10027000FE4F942F9F709083529542954F70452763
:100280005F7045278F5F853070F4823071F7842F5F
:100290008F7080931201529542954F7045275F7081
:1002A000452784E0E2CFE0911301F0E0EB5FFE4FE1
:1002B00080818BBBFE01E050FF4F808188BB21967F
:1002C000C530D105B4F08FE99FE00197F1F700C088
:1002D00000008FE99FE00197F1F700C000001ABA13
:1002E000FBBAC8BAD0921401E8BAFABAC0E0D0E0BA
:1002F0008DCF8FE99FE00197F1F700C000008FE9F3
:100300009FE00197F1F700C000001ABAFBBAC8BA23
:10031000D0921401E8BAFABAC230D10509F076CF0A
:10032000C3E0D0E073CFA29FB001B39FC001A39FF1
:10033000700D811D1124911DB29F700D811D11241E
:08034000911D0895F894FFCF10
:100348000010203040C0F9A4B0999282F88098C07B
:04035800FF07FFFF9D
:00000001FF
