:100000000C9446000C9465000C9465000C946500FB
:100010000C9465000C9465000C9465000C946500CC
:100020000C9465000C9465000C9465000C946500BC
:100030000C9465000C9465000C9465000C946500AC
:100040000C9465000C9465000C9465000C9465009C
:100050000C9465000C9465000C9465000C9465008C
:100060000C9465000C9465000C9465000C9465007C
:100070000C9465000C9465000C9465000C9465006C
:100080000C9465000C9465000C94650011241FBE4F
:10009000CFEFD0E1DEBFCDBF11E0A0E0B1E0E4E8FA
:1000A000F3E000E00BBF02C007900D92A431B1074E
:1000B000D9F721E0A4E1B1E001C01D92AE31B20751
:1000C000E1F70E94E0000C94C0010C940000CF9373
:1000D000DF93AC01C0E0D0E0892B39F1E0E0F0E043
:1000E0009A01ADECBCEC0E94B1019695879596956E
:1000F000879596958795BC01660F771F9C01220F07
:10010000331F220F331F220F331F260F371F421BAF
:10011000530B0E2E02C0440F551F0A94E2F7C40F72
:10012000D51F3496AC01892BD9F6CE01DF91CF9142
:1001300008952091150199B3E22FF0E0E95EFE4F9A
:1001400041E050E001C0440F8A95EAF790954923B9
:1001500040832F5F90911601E7E1F1E08FEF31913D
:1001600083239827273008F020E031E0ED31F307B2
:10017000B1F7909316012093150108959C0190E02A
:1001800010C0E92FF0E0E15FFE4F822F8F70808377
:10019000329522952F7023273F7023279F5F95303C
:1001A00070F4923071F7822F8F7080931201329524
:1001B00022952F7023273F70232794E0E2CF0895E4
:1001C00080EF87BB18BAC0E0D0E0FF24FA94B0E714
:1001D000DB2E10E6E12E8FE99FE00197F1F700C0DA
:1001E00000008FE99FE00197F1F700C000008FE960
:1001F0009FE00197F1F700C000001ABAFBBAD8BA25
:1002000010E0812F0E9499001F5F1830D1F7809174
:10021000160180FF05C0909114019F5F9093140117
:1002200081FF05C0909114019E5F9093140182FF9D
:1002300005C0909114019C5F9093140183FF05C049
:1002400090911401985F9093140184FF05C09091E0
:100250001401905F9093140185FF05C090911401E3
:10026000905E9093140186FF05C090911401905CFC
:100270009093140187FD6FC0E8BAFABAC230D10575
:1002800009F466C04091140150E0E0E0F0E041154F
:10029000510541F100E010E09A01ADECBCEC0E9488
:1002A000B101969587959695879596958795BC010A
:1002B000660F771F9C01220F331F220F331F220F5F
:1002C000331F260F371F421B530B002E02C0440F53
:1002D000551F0A94E2F7E40FF51F0C5F1F4FAC01A6
:1002E000892BD1F680E010C0A82FB0E0A15FBE4FEF
:1002F0009E2F9F709C93F295E295EF70EF27FF7011
:10030000EF278F5F853070F4823071F78E2F8F70FA
:1003100080931201F295E295EF70EF27FF70EF27BF
:1003200084E0E2CFFE01E15FFE4FE081F0E0EB5FB1
:10033000FE4F80818BBBFE01E050FF4F808188BB68
:100340002196C530D1050CF446CFC0E0D0E043CFB4
:10035000C3E0D0E097CF80911401805880931401BE
:100360008BCFA29FB001B39FC001A39F700D811DD1
:100370001124911DB29F700D811D1124911D0895AE
:04038000F894FFCF1F
:100384000010203040C0F9A4B0999282F88098C03F
:04039400FF07FFFF61
:00000001FF
