S00C0000746573742E7372656358
S11300000C9446000C9465000C9465000C946500F7
S11300100C9465000C9465000C9465000C946500C8
S11300200C9465000C9465000C9465000C946500B8
S11300300C9465000C9465000C9465000C946500A8
S11300400C94F0000C9465000C9465000C9465000D
S11300500C9465000C9465000C9465000C94650088
S11300600C9465000C9465000C9465000C94650078
S11300700C9465000C9465000C9465000C94650068
S11300800C9465000C9465000C94650011241FBE4B
S1130090CFEFD0E1DEBFCDBF11E0A0E0B1E0EEEFE5
S11300A0F3E000E00BBF02C007900D92AA31B10744
S11300B0D9F721E0AAE1B1E001C01D92A033B20753
S11300C0E1F70E94FF000C94FD010C940000CF9313
S11300D0DF93AC01C0E0D0E0892B39F1E0E0F0E03F
S11300E09A01ADECBCEC0E94EE019695879596952D
S11300F0879596958795BC01660F771F9C01220F03
S1130100331F220F331F220F331F260F371F421BAB
S1130110530B0E2E02C0440F551F0A94E2F7C40F6E
S1130120D51F3496AC01892BD9F6CE01DF91CF913E
S11301300895482FE82FF0E099B3EE0FFF1FE05E1B
S1130140FE4F20813181220F331F3E6F892F90E0B3
S113015002C0959587954A95E2F781709927282BD7
S1130160392B3183208381E021153F4F09F080E052
S113017008959C0190E010C0E92FF0E0EB5EFE4F83
S1130180822F8F708083329522952F7023273F70A2
S113019023279F5F953070F4923071F7822F8F7010
S11301A080931801329522952F7023273F702327BF
S11301B094E0E2CF089587B3876087BB80E58DB96B
S11301C081E08EB9089587B7816087BF83B7856062
S11301D083BF08958FB9779BFECF8FB18095089523
S11301E01F920F920FB60F9211248F9381E0809388
S11301F01D018F910F900FBE0F901F90189580EFE7
S113020087BBC79883E084BB15BA87B7816087BF73
S113021083B7856083BF87B3876087BB80E58DB96B
S113022081E08EB97894C0E0D0E0BB24BA9410E7A2
S1130230A12EEE24EA9403E0F02E01E010E0809178
S11302401D018823A1F1A89A809100018FB9779BA1
S1130250FECF8FB1809580930001A99A85B38C7FDE
S113026085BB1ABABBBAA8BAE0E2F1E020E030E0FC
S113027099B340815181440F551F892F90E0022E7C
S113028002C0959587950A94E2F781709927842B8B
S1130290952B9E6F819391932F5F3F4F24303105AF
S11302A039F788B3806688BBC49810921D014091C9
S11302B01E0150911F01411524E052070CF47AC02D
S11302C010931F0100931E0141E050E0E0E0F0E0D4
S11302D0C12CD12C9A01ADECBCEC0E94EE01969598
S11302E087959695879596958795BC01660F771F98
S11302F09C01220F331F220F331F220F331F260F9F
S1130300371F421B530B0C2C02C0440F551F0A9479
S1130310E2F7E40FF51F24E0C20ED11CAC01892BD7
S1130320C9F680E010C0A82FB0E0AB5EBE4F9E2F90
S11303309F709C93F295E295EF70EF27FF70EF2783
S11303408F5F853070F4823071F78E2F8F708093B9
S11303501801F295E295EF70EF27FF70EF2784E024
S1130360E2CFBABAFE01EB5EFE4FE081F0E0E55F5A
S1130370FE4F80818BBB98B3FE01EA5FFE4F808104
S1130380892B88BB98B3FE01EF5FFE4F80818923E0
S113039088BBCE01019682309105B9F08530910574
S11303A094F0C0E0D0E08FE19EE40197F1F700C043
S11303B0000045CF57FD0BC04115510509F086CF0C
S11303C0E0E0F0E0AECFEC01EECF0196E7CFF092A3
S11303D01F01E0921E014FEF53E078CFA29FB001BE
S11303E0B39FC001A39F700D811D1124911DB29F65
S11103F0700D811D1124911D0895F894FFCF06
S11303FE028F9FAFBFCF0010203040C0F9A4B09938
S10D040E9282F88098C0FF07FFFFF8
S9030000FC
