:100000000C9446000C9458000C9458000C94580022
:100010000C9458000C9458000C9458000C94580000
:100020000C9458000C9458000C9458000C945800F0
:100030000C9458000C9458000C9458000C945800E0
:100040000C9458000C9458000C9458000C945800D0
:100050000C9458000C9458000C9458000C945800C0
:100060000C9458000C9458000C9458000C945800B0
:100070000C9458000C9458000C9458000C945800A0
:100080000C9458000C9458000C94580011241FBE76
:10009000CFEFD0E1DEBFCDBF21E0A0E0B1E001C0F5
:1000A0001D92A230B207E1F70E9471000C94A500E6
:1000B0000C94000040B32091000130910101220F07
:1000C000331F306E842F817090E0282B392B3093B2
:1000D00001012093000181E02115304F09F080E0FB
:1000E00008958FEF87BB50E06DEC06C083EF91E081
:1000F0000197F1F700C0000040B38091000190919A
:100100000101880F991F906E242F217030E0822BFF
:10011000932B90930101809300018115904F31F74B
:100120005F5F543620F080E050E088BBDFCF569F01
:10013000812D1124869586958695452F96E0899F79
:0E014000400D1124842F88BBD1CFF894FFCF3F
:00000001FF
