:100000000C9453000C9472000C9472000C947200C7
:100010000C9472000C9472000C9472000C94720098
:100020000C9472000C9472000C9472000C94720088
:100030000C9472000C9472000C9472000C94720078
:100040000C94FD000C9472000C9472000C947200DD
:100050000C9472000C9472000C9472000C94720058
:100060000C9472000C9472000C9472000C94720048
:100070000C9472000C9472000C9472000C94720038
:100080000C9472000C9472000C947200DF01DF017A
:1000900068016E016E01810181018101D801810138
:1000A000810181017F0111241FBECFEFD0E1DEBFAE
:1000B000CDBF11E0A0E0B1E0E6E6F4E000E00BBF68
:1000C00002C007900D92AA31B107D9F721E0AAE149
:1000D000B1E001C01D92A133B207E1F70E940C010B
:1000E0000C9431020C940000CF93DF93AC01C0E07C
:1000F000D0E0892B39F1E0E0F0E09A01ADECBCEC06
:100100000E94220296958795969587959695879554
:10011000BC01660F771F9C01220F331F220F331F74
:10012000220F331F260F371F421B530B0E2E02C008
:10013000440F551F0A94E2F7C40FD51F3496AC0143
:10014000892BD9F6CE01DF91CF910895482FE82F62
:10015000F0E099B3EE0FFF1FE35EFE4F2081318187
:10016000220F331F306E892F90E002C0959587953E
:100170004A95E2F781709927282B392B3183208308
:1001800081E02115304F09F080E008959C0190E056
:1001900010C0E92FF0E0EC5EFE4F822F8F7080835D
:1001A000329522952F7023273F7023279F5F95302C
:1001B00070F4923071F7822F8F708093170132950F
:1001C00022952F7023273F70232794E0E2CF0895D4
:1001D00087B3876087BB80E58DB981E08EB90895CC
:1001E00087B7816087BF83B7856083BF08958FB964
:1001F000779BFECF8FB1809508951F920F920FB617
:100200000F9211248F9381E080931A018F910F90A8
:100210000FBE0F901F90189580EF87BB83E084BBC3
:1002200015BA87B7816087BF83B7856083BF87B3FF
:10023000876087BB80E58DB981E08EB97894109294
:100240002F0110922D011092300110922E01C0E06A
:10025000D0E001E010E0BCE0CB2E88E0B82E92E0C8
:10026000992EAA24A394DD24DA948FE99FE00197C4
:10027000F1F700C0000088B3806688BBC498809105
:100280001B0190911C018115944020F010931C01DA
:1002900000931B01C230D10509F4BEC080911A0140
:1002A0008823A1F1A89A80911B018FB9779BFECF7B
:1002B0008FB1E82FE0958E2FEE0F990BAA0BBB0B99
:1002C0008D309105F0F4FC01EA5BFF4F0C941902AC
:1002D000809130018111A3C0A0922E0180911B0159
:1002E00090911C0120912F012111019690922D01D6
:1002F000019790931C0180931B01B0922F01C09233
:100300003001A898A99AA99810921A0140911B014E
:1003100050911C01E0E0F0E04115510549F1E12C5C
:10032000F12C9A01ADECBCEC0E94220296958795C7
:100330009695879596958795BC01660F771F9C01CA
:10034000220F331F220F331F220F331F260F371F99
:10035000421B530B0E2C02C0440F551F0A94E2F7A8
:10036000E40FF51F24E0E20EF11CAC01892BC9F665
:1003700080E010C0A82FB0E0AC5EBE4F9E2F9F70F3
:100380009C93F295E295EF70EF27FF70EF278F5F58
:10039000853010F5823071F78E2F8F7080931701A2
:1003A000F295E295EF70EF27FF70EF2784E0E2CF40
:1003B00080912F01811138C0A0922D019ECF809194
:1003C0003001882361F180911B0190911C010196FD
:1003D00010922E01019786CFDABAFE01EC5EFE4F35
:1003E000E081F0E0E65FFE4F80818BBB98B3FE01B9
:1003F000EB5FFE4F8081892B88BB98B3FE01E050F4
:10040000FF4F8081892388BB2196C530D1050CF42C
:100410002CCFC0E0D0E029CFC3E0D0E03FCF809127
:100420001B0190911C01D4CF80911B0190911C0164
:100430005DCFEE0FFF1F0024001C0BBE0790F6914E
:10044000E02D0994A29FB001B39FC001A39F700D3E
:10045000811D1124911DB29F700D811D1124911DCC
:060460000895F894FFCF9F
:100466008F9FAFBFCF0010203040C0F9A4B0999243
:0A04760082F88098C0FF07FFFF0026
:00000001FF
