S00C00006C6162332E73726563B6
S11300000C9446000C9465000C9465000C946500F7
S11300100C9465000C9465000C9465000C946500C8
S11300200C9465000C9465000C9465000C946500B8
S11300300C9465000C9465000C9465000C946500A8
S11300400C94F0000C9465000C9465000C9465000D
S11300500C9465000C9465000C9465000C94650088
S11300600C9465000C9465000C9465000C94650078
S11300700C9465000C9465000C9465000C94650068
S11300800C9465000C9465000C94650011241FBE4B
S1130090CFEFD0E1DEBFCDBF11E0A0E0B1E0ECEDE9
S11300A0F4E000E00BBF02C007900D92AA31B10743
S11300B0D9F721E0AAE1B1E001C01D92A033B20753
S11300C0E1F70E94FF000C946C020C940000CF93A3
S11300D0DF93AC01C0E0D0E0892B39F1E0E0F0E03F
S11300E09A01ADECBCEC0E945D02969587959695BD
S11300F0879596958795BC01660F771F9C01220F03
S1130100331F220F331F220F331F260F371F421BAB
S1130110530B0E2E02C0440F551F0A94E2F7C40F6E
S1130120D51F3496AC01892BD9F6CE01DF91CF913E
S11301300895482FE82FF0E099B3EE0FFF1FE05E1B
S1130140FE4F20813181220F331F3E6F892F90E0B3
S113015002C0959587954A95E2F781709927282BD7
S1130160392B3183208381E021153F4F09F080E052
S113017008959C0190E010C0E92FF0E0EB5EFE4F83
S1130180822F8F708083329522952F7023273F70A2
S113019023279F5F953070F4923071F7822F8F7010
S11301A080931801329522952F7023273F702327BF
S11301B094E0E2CF089587B3876087BB80E58DB96B
S11301C081E08EB9089587B7816087BF83B7856062
S11301D083BF08958FB9779BFECF8FB18095089523
S11301E01F920F920FB60F9211248F9381E0809388
S11301F01D018F910F900FBE0F901F90189580EFE7
S113020087BBC79883E084BB15BA87B7816087BF73
S113021083B7856083BF87B3876087BB80E58DB96B
S113022081E08EB97894C0E0D0E099249A9410E7E4
S1130230812E01E010E0EE24E394F12CCC24CA9446
S113024093E0D92E80911D01882309F44AC0A89A0D
S1130250809100018FB9779BFECF8FB180959091EB
S11302601A0120911C01233009F4F2C080931C016F
S11302708695869520911B01233009F4F4C0809360
S11302801B0190931A01A99A85B38C7F85BB1ABA76
S11302909BBA88BAE0E2F1E020E030E099B3408113
S11302A05181440F551F892F90E0022E02C095956D
S11302B087950A94E2F781709927842B952B9E6F7A
S11302C08193919381159F4F09F492C02F5F3F4F03
S11302D02430310519F788B3806688BBC49810921E
S11302E01D0180911A01811198C040911E01509105
S11302F01F01411524E052070CF486C0F0921F013F
S1130300E0921E0141E050E0E0E0F0E0A12CB12CCD
S11303109A01ADECBCEC0E945D029695879596958A
S1130320879596958795BC01660F771F9C01220FD0
S1130330331F220F331F220F331F260F371F421B79
S1130340530B0A2C02C0440F551F0A94E2F7E40F22
S1130350F51F44E0A40EB11CAC01892BC9F680E062
S113036010C0A82FB0E0AB5EBE4F9E2F9F709C9331
S1130370F295E295EF70EF27FF70EF278F5F8530DE
S113038070F4823071F78E2F8F7080931801F2957C
S1130390E295EF70EF27FF70EF2784E0E2CF9ABA7F
S11303A0FE01EB5EFE4FE081F0E0E55FFE4F8081F1
S11303B08BBB98B3FE01EA5FFE4F8081892B88BB1B
S11303C098B3FE01EF5FFE4F8081892388BBCE0185
S11303D0019682309105D1F185309105ACF1C0E0F0
S11303E0D0E08FE99FE00197F1F700C000002ACF29
S11303F040910001C801022E01C0880F0A94EAF757
S113040084278093000162CF57FD34C04115510504
S113041009F07ACFE0E0F0E0A2CF909100019430AF
S1130420D1F140911E0150911F01983051F1923049
S113043041F4480F511D87FD5A9550931F01409375
S11304401E0110921A0155CFEC01CBCF0196C4CFF7
S1130450813089F1823009F009CF9FEF80931C012C
S1130460869586950CCF813021F1823009F007CF33
S11304709FEF05CFD0921F01C0921E014FEF53E0B2
S113048043CF94E08902400D511D112450931F0164
S113049040931E01D6CF482F440F550B80911E0167
S11304A090911F01480F591F50931F0140931E0143
S11304B0C8CF91E0E4CE91E0D1CFA29FB001B39F29
S11304C0C001A39F700D811D1124911DB29F700D59
S10F04D0811D1124911D0895F894FFCFA4
S11304DC028F9FAFBFCF0010203040C0F9A4B09959
S10D04EC9282F88098C0FF07FFFF1A
S9030000FC
