S00C00006C6162332E73726563B6
S11300000C9446000C9465000C9465000C946500F7
S11300100C9465000C9465000C9465000C946500C8
S11300200C9465000C9465000C9465000C946500B8
S11300300C9465000C9465000C9465000C946500A8
S11300400C94F1000C9465000C9465000C9465000C
S11300500C9465000C9465000C9465000C94650088
S11300600C9465000C9465000C9465000C94650078
S11300700C9465000C9465000C9465000C94650068
S11300800C9465000C9465000C94650011241FBE4B
S1130090CFEFD0E1DEBFCDBF11E0A0E0B1E0E2E8F8
S11300A0F3E000E00BBF02C007900D92AC31B10742
S11300B0D9F721E0ACE1B1E001C01D92AE32B20744
S11300C0E1F70E940F010C94BF010C940000CF9340
S11300D0DF93AC01C0E0D0E0892B39F1E0E0F0E03F
S11300E09A01ADECBCEC0E94B0019695879596956B
S11300F0879596958795BC01660F771F9C01220F03
S1130100331F220F331F220F331F260F371F421BAB
S1130110530B0E2E02C0440F551F0A94E2F7C40F6E
S1130120D51F3496AC01892BD9F6CE01DF91CF913E
S11301300895482FE82FF0E099B3EE0FFF1FE25E19
S1130140FE4F20813181220F331F306E892F90E0C2
S113015002C0959587954A95E2F781709927282BD7
S1130160392B3183208381E02115304F09F080E061
S113017008959C0190E010C0E92FF0E0EA5EFE4F84
S1130180822F8F708083329522952F7023273F70A2
S113019023279F5F953070F4923071F7822F8F7010
S11301A080931901329522952F7023273F702327BE
S11301B094E0E2CF089587B3876087BB80E58DB96B
S11301C081E08EB9089587B7816087BF83B7856062
S11301D083BF81E081BF08958FB9779BFECF8FB134
S11301E008951F920F920FB60F9211242F938F939D
S11301F09F931FB8779BFECF2FB180911C019091E4
S11302001D01820F911D90931D0180931C019F91EC
S11302108F912F910F900FBE0F901F90189580EF24
S113022087BB81E084BB85BB97B7916097BF93B7C9
S1130230956093BF81BF97B3976097BB90E59DB9D5
S11302408EB9789400E010E0EE24E394F12CDD24E0
S1130250DA9488B3806688BBC49880911C0190911D
S11302601D018115944020F0F0921D01E0921C01C3
S1130270DABA0230110509F470C040911C015091A2
S11302801D01E0E0F0E04115510539F1C0E0D0E096
S11302909A01ADECBCEC0E94B001969587959695B9
S11302A0879596958795BC01660F771F9C01220F51
S11302B0331F220F331F220F331F260F371F421BFA
S11302C0530B0C2E02C0440F551F0A94E2F7E40F9F
S11302D0F51F2496AC01892BD9F680E010C0A82F15
S11302E0B0E0AA5EBE4F9E2F9F709C93F295E2955C
S11302F0EF70EF27FF70EF278F5F853070F4823047
S113030071F78E2F8F7080931901F295E295EF703B
S1130310EF27FF70EF2784E0E2CFF801EA5EFE4F9B
S1130320E081F0E0E45FFE4F80818BBB98B3F8017D
S1130330E95FFE4F8081892B88BB98B3F801EE5F9B
S1130340FE4F8081892388BB0F5F1F4F0530110545
S11303500CF47FCF00E010E07CCF03E010E08DCF01
S1130360A29FB001B39FC001A39F700D811D1124F2
S1130370911DB29F700D811D1124911D0895F89453
S1050380FFCFA9
S113038264008F9FAFBFCF0010203040C0F9A4B0EB
S10F0392999282F88098C0FF07FFFF00DA
S9030000FC
